{
  "_format": "hh-sol-artifact-1",
  "contractName": "Sudhanshu",
  "sourceName": "contracts/Sudhanshu.sol",
  "abi": [
    {
      "inputs": [
        {
          "internalType": "string",
          "name": "name",
          "type": "string"
        },
        {
          "internalType": "string",
          "name": "symbol",
          "type": "string"
        },
        {
          "internalType": "uint256",
          "name": "initialSupply",
          "type": "uint256"
        }
      ],
      "stateMutability": "nonpayable",
      "type": "constructor"
    },
    {
      "anonymous": false,
      "inputs": [
        {
          "indexed": true,
          "internalType": "address",
          "name": "owner",
          "type": "address"
        },
        {
          "indexed": true,
          "internalType": "address",
          "name": "spender",
          "type": "address"
        },
        {
          "indexed": false,
          "internalType": "uint256",
          "name": "value",
          "type": "uint256"
        }
      ],
      "name": "Approval",
      "type": "event"
    },
    {
      "anonymous": false,
      "inputs": [
        {
          "indexed": true,
          "internalType": "address",
          "name": "previousOwner",
          "type": "address"
        },
        {
          "indexed": true,
          "internalType": "address",
          "name": "newOwner",
          "type": "address"
        }
      ],
      "name": "OwnershipTransferred",
      "type": "event"
    },
    {
      "anonymous": false,
      "inputs": [
        {
          "indexed": true,
          "internalType": "address",
          "name": "from",
          "type": "address"
        },
        {
          "indexed": true,
          "internalType": "address",
          "name": "to",
          "type": "address"
        },
        {
          "indexed": false,
          "internalType": "uint256",
          "name": "value",
          "type": "uint256"
        }
      ],
      "name": "Transfer",
      "type": "event"
    },
    {
      "inputs": [
        {
          "internalType": "address",
          "name": "owner",
          "type": "address"
        },
        {
          "internalType": "address",
          "name": "spender",
          "type": "address"
        }
      ],
      "name": "allowance",
      "outputs": [
        {
          "internalType": "uint256",
          "name": "",
          "type": "uint256"
        }
      ],
      "stateMutability": "view",
      "type": "function"
    },
    {
      "inputs": [
        {
          "internalType": "address",
          "name": "spender",
          "type": "address"
        },
        {
          "internalType": "uint256",
          "name": "amount",
          "type": "uint256"
        }
      ],
      "name": "approve",
      "outputs": [
        {
          "internalType": "bool",
          "name": "",
          "type": "bool"
        }
      ],
      "stateMutability": "nonpayable",
      "type": "function"
    },
    {
      "inputs": [
        {
          "internalType": "address",
          "name": "account",
          "type": "address"
        }
      ],
      "name": "balanceOf",
      "outputs": [
        {
          "internalType": "uint256",
          "name": "",
          "type": "uint256"
        }
      ],
      "stateMutability": "view",
      "type": "function"
    },
    {
      "inputs": [
        {
          "internalType": "uint256",
          "name": "amount",
          "type": "uint256"
        }
      ],
      "name": "burn",
      "outputs": [],
      "stateMutability": "nonpayable",
      "type": "function"
    },
    {
      "inputs": [],
      "name": "decimals",
      "outputs": [
        {
          "internalType": "uint8",
          "name": "",
          "type": "uint8"
        }
      ],
      "stateMutability": "view",
      "type": "function"
    },
    {
      "inputs": [
        {
          "internalType": "address",
          "name": "spender",
          "type": "address"
        },
        {
          "internalType": "uint256",
          "name": "subtractedValue",
          "type": "uint256"
        }
      ],
      "name": "decreaseAllowance",
      "outputs": [
        {
          "internalType": "bool",
          "name": "",
          "type": "bool"
        }
      ],
      "stateMutability": "nonpayable",
      "type": "function"
    },
    {
      "inputs": [
        {
          "internalType": "address",
          "name": "spender",
          "type": "address"
        },
        {
          "internalType": "uint256",
          "name": "addedValue",
          "type": "uint256"
        }
      ],
      "name": "increaseAllowance",
      "outputs": [
        {
          "internalType": "bool",
          "name": "",
          "type": "bool"
        }
      ],
      "stateMutability": "nonpayable",
      "type": "function"
    },
    {
      "inputs": [
        {
          "internalType": "address",
          "name": "to",
          "type": "address"
        },
        {
          "internalType": "uint256",
          "name": "amount",
          "type": "uint256"
        }
      ],
      "name": "mint",
      "outputs": [],
      "stateMutability": "nonpayable",
      "type": "function"
    },
    {
      "inputs": [],
      "name": "name",
      "outputs": [
        {
          "internalType": "string",
          "name": "",
          "type": "string"
        }
      ],
      "stateMutability": "view",
      "type": "function"
    },
    {
      "inputs": [],
      "name": "owner",
      "outputs": [
        {
          "internalType": "address",
          "name": "",
          "type": "address"
        }
      ],
      "stateMutability": "view",
      "type": "function"
    },
    {
      "inputs": [],
      "name": "renounceOwnership",
      "outputs": [],
      "stateMutability": "nonpayable",
      "type": "function"
    },
    {
      "inputs": [],
      "name": "symbol",
      "outputs": [
        {
          "internalType": "string",
          "name": "",
          "type": "string"
        }
      ],
      "stateMutability": "view",
      "type": "function"
    },
    {
      "inputs": [],
      "name": "totalSupply",
      "outputs": [
        {
          "internalType": "uint256",
          "name": "",
          "type": "uint256"
        }
      ],
      "stateMutability": "view",
      "type": "function"
    },
    {
      "inputs": [
        {
          "internalType": "address",
          "name": "to",
          "type": "address"
        },
        {
          "internalType": "uint256",
          "name": "amount",
          "type": "uint256"
        }
      ],
      "name": "transfer",
      "outputs": [
        {
          "internalType": "bool",
          "name": "",
          "type": "bool"
        }
      ],
      "stateMutability": "nonpayable",
      "type": "function"
    },
    {
      "inputs": [
        {
          "internalType": "address",
          "name": "from",
          "type": "address"
        },
        {
          "internalType": "address",
          "name": "to",
          "type": "address"
        },
        {
          "internalType": "uint256",
          "name": "amount",
          "type": "uint256"
        }
      ],
      "name": "transferFrom",
      "outputs": [
        {
          "internalType": "bool",
          "name": "",
          "type": "bool"
        }
      ],
      "stateMutability": "nonpayable",
      "type": "function"
    },
    {
      "inputs": [
        {
          "internalType": "address",
          "name": "newOwner",
          "type": "address"
        }
      ],
      "name": "transferOwnership",
      "outputs": [],
      "stateMutability": "nonpayable",
      "type": "function"
    }
  ],
  "bytecode": "0x60806040523480156200001157600080fd5b50604051620026f0380380620026f0833981810160405281019062000037919062000432565b8282816003908051906020019062000051929190620002f9565b5080600490805190602001906200006a929190620002f9565b5050506200008d62000081620000a860201b60201c565b620000b060201b60201c565b6200009f33826200017660201b60201c565b5050506200078b565b600033905090565b6000600560009054906101000a900473ffffffffffffffffffffffffffffffffffffffff16905081600560006101000a81548173ffffffffffffffffffffffffffffffffffffffff021916908373ffffffffffffffffffffffffffffffffffffffff1602179055508173ffffffffffffffffffffffffffffffffffffffff168173ffffffffffffffffffffffffffffffffffffffff167f8be0079c531659141344cd1fd0a4f28419497f9722a3daafe3b4186f6b6457e060405160405180910390a35050565b600073ffffffffffffffffffffffffffffffffffffffff168273ffffffffffffffffffffffffffffffffffffffff161415620001e9576040517f08c379a0000000000000000000000000000000000000000000000000000000008152600401620001e090620004f2565b60405180910390fd5b620001fd60008383620002ef60201b60201c565b8060026000828254620002119190620005a1565b92505081905550806000808473ffffffffffffffffffffffffffffffffffffffff1673ffffffffffffffffffffffffffffffffffffffff1681526020019081526020016000206000828254620002689190620005a1565b925050819055508173ffffffffffffffffffffffffffffffffffffffff16600073ffffffffffffffffffffffffffffffffffffffff167fddf252ad1be2c89b69c2b068fc378daa952ba7f163c4a11628f55a4df523b3ef83604051620002cf919062000514565b60405180910390a3620002eb60008383620002f460201b60201c565b5050565b505050565b505050565b82805462000307906200063e565b90600052602060002090601f0160209004810192826200032b576000855562000377565b82601f106200034657805160ff191683800117855562000377565b8280016001018555821562000377579182015b828111156200037657825182559160200191906001019062000359565b5b5090506200038691906200038a565b5090565b5b80821115620003a55760008160009055506001016200038b565b5090565b6000620003c0620003ba846200055a565b62000531565b905082815260208101848484011115620003d957600080fd5b620003e684828562000608565b509392505050565b600082601f8301126200040057600080fd5b815162000412848260208601620003a9565b91505092915050565b6000815190506200042c8162000771565b92915050565b6000806000606084860312156200044857600080fd5b600084015167ffffffffffffffff8111156200046357600080fd5b6200047186828701620003ee565b935050602084015167ffffffffffffffff8111156200048f57600080fd5b6200049d86828701620003ee565b9250506040620004b0868287016200041b565b9150509250925092565b6000620004c9601f8362000590565b9150620004d68262000748565b602082019050919050565b620004ec81620005fe565b82525050565b600060208201905081810360008301526200050d81620004ba565b9050919050565b60006020820190506200052b6000830184620004e1565b92915050565b60006200053d62000550565b90506200054b828262000674565b919050565b6000604051905090565b600067ffffffffffffffff82111562000578576200057762000708565b5b620005838262000737565b9050602081019050919050565b600082825260208201905092915050565b6000620005ae82620005fe565b9150620005bb83620005fe565b9250827fffffffffffffffffffffffffffffffffffffffffffffffffffffffffffffffff03821115620005f357620005f2620006aa565b5b828201905092915050565b6000819050919050565b60005b83811015620006285780820151818401526020810190506200060b565b8381111562000638576000848401525b50505050565b600060028204905060018216806200065757607f821691505b602082108114156200066e576200066d620006d9565b5b50919050565b6200067f8262000737565b810181811067ffffffffffffffff82111715620006a157620006a062000708565b5b80604052505050565b7f4e487b7100000000000000000000000000000000000000000000000000000000600052601160045260246000fd5b7f4e487b7100000000000000000000000000000000000000000000000000000000600052602260045260246000fd5b7f4e487b7100000000000000000000000000000000000000000000000000000000600052604160045260246000fd5b6000601f19601f8301169050919050565b7f45524332303a206d696e7420746f20746865207a65726f206164647265737300600082015250565b6200077c81620005fe565b81146200078857600080fd5b50565b611f55806200079b6000396000f3fe608060405234801561001057600080fd5b50600436106101005760003560e01c806370a0823111610097578063a457c2d711610066578063a457c2d71461029d578063a9059cbb146102cd578063dd62ed3e146102fd578063f2fde38b1461032d57610100565b806370a0823114610227578063715018a6146102575780638da5cb5b1461026157806395d89b411461027f57610100565b8063313ce567116100d3578063313ce567146101a157806339509351146101bf57806340c10f19146101ef57806342966c681461020b57610100565b806306fdde0314610105578063095ea7b31461012357806318160ddd1461015357806323b872dd14610171575b600080fd5b61010d610349565b60405161011a9190611773565b60405180910390f35b61013d6004803603810190610138919061149c565b6103db565b60405161014a9190611758565b60405180910390f35b61015b6103f9565b6040516101689190611935565b60405180910390f35b61018b6004803603810190610186919061144d565b610403565b6040516101989190611758565b60405180910390f35b6101a9610488565b6040516101b69190611950565b60405180910390f35b6101d960048036038101906101d4919061149c565b610491565b6040516101e69190611758565b60405180910390f35b6102096004803603810190610204919061149c565b61053d565b005b610225600480360381019061022091906114d8565b6105c7565b005b610241600480360381019061023c91906113e8565b6105d4565b60405161024e9190611935565b60405180910390f35b61025f61061c565b005b6102696106a4565b604051610276919061173d565b60405180910390f35b6102876106ce565b6040516102949190611773565b60405180910390f35b6102b760048036038101906102b2919061149c565b610760565b6040516102c49190611758565b60405180910390f35b6102e760048036038101906102e2919061149c565b61084b565b6040516102f49190611758565b60405180910390f35b61031760048036038101906103129190611411565b6108ce565b6040516103249190611935565b60405180910390f35b610347600480360381019061034291906113e8565b610955565b005b60606003805461035890611a99565b80601f016020809104026020016040519081016040528092919081815260200182805461038490611a99565b80156103d15780601f106103a6576101008083540402835291602001916103d1565b820191906000526020600020905b8154815290600101906020018083116103b457829003601f168201915b5050505050905090565b60006103ef6103e8610a4d565b8484610a55565b6001905092915050565b6000600254905090565b60008073ffffffffffffffffffffffffffffffffffffffff168373ffffffffffffffffffffffffffffffffffffffff161415610474576040517f08c379a000000000000000000000000000000000000000000000000000000000815260040161046b90611835565b60405180910390fd5b61047f848484610c20565b90509392505050565b60006012905090565b600061053361049e610a4d565b8484600160006104ac610a4d565b73ffffffffffffffffffffffffffffffffffffffff1673ffffffffffffffffffffffffffffffffffffffff16815260200190815260200160002060008873ffffffffffffffffffffffffffffffffffffffff1673ffffffffffffffffffffffffffffffffffffffff1681526020019081526020016000205461052e9190611987565b610a55565b6001905092915050565b610545610a4d565b73ffffffffffffffffffffffffffffffffffffffff166105636106a4565b73ffffffffffffffffffffffffffffffffffffffff16146105b9576040517f08c379a00000000000000000000000000000000000000000000000000000000081526004016105b090611875565b60405180910390fd5b6105c38282610d18565b5050565b6105d13382610e78565b50565b60008060008373ffffffffffffffffffffffffffffffffffffffff1673ffffffffffffffffffffffffffffffffffffffff168152602001908152602001600020549050919050565b610624610a4d565b73ffffffffffffffffffffffffffffffffffffffff166106426106a4565b73ffffffffffffffffffffffffffffffffffffffff1614610698576040517f08c379a000000000000000000000000000000000000000000000000000000000815260040161068f90611875565b60405180910390fd5b6106a2600061104f565b565b6000600560009054906101000a900473ffffffffffffffffffffffffffffffffffffffff16905090565b6060600480546106dd90611a99565b80601f016020809104026020016040519081016040528092919081815260200182805461070990611a99565b80156107565780601f1061072b57610100808354040283529160200191610756565b820191906000526020600020905b81548152906001019060200180831161073957829003601f168201915b5050505050905090565b6000806001600061076f610a4d565b73ffffffffffffffffffffffffffffffffffffffff1673ffffffffffffffffffffffffffffffffffffffff16815260200190815260200160002060008573ffffffffffffffffffffffffffffffffffffffff1673ffffffffffffffffffffffffffffffffffffffff1681526020019081526020016000205490508281101561082c576040517f08c379a0000000000000000000000000000000000000000000000000000000008152600401610823906118f5565b60405180910390fd5b610840610837610a4d565b85858403610a55565b600191505092915050565b60008073ffffffffffffffffffffffffffffffffffffffff168373ffffffffffffffffffffffffffffffffffffffff1614156108bc576040517f08c379a00000000000000000000000000000000000000000000000000000000081526004016108b390611835565b60405180910390fd5b6108c68383611115565b905092915050565b6000600160008473ffffffffffffffffffffffffffffffffffffffff1673ffffffffffffffffffffffffffffffffffffffff16815260200190815260200160002060008373ffffffffffffffffffffffffffffffffffffffff1673ffffffffffffffffffffffffffffffffffffffff16815260200190815260200160002054905092915050565b61095d610a4d565b73ffffffffffffffffffffffffffffffffffffffff1661097b6106a4565b73ffffffffffffffffffffffffffffffffffffffff16146109d1576040517f08c379a00000000000000000000000000000000000000000000000000000000081526004016109c890611875565b60405180910390fd5b600073ffffffffffffffffffffffffffffffffffffffff168173ffffffffffffffffffffffffffffffffffffffff161415610a41576040517f08c379a0000000000000000000000000000000000000000000000000000000008152600401610a38906117d5565b60405180910390fd5b610a4a8161104f565b50565b600033905090565b600073ffffffffffffffffffffffffffffffffffffffff168373ffffffffffffffffffffffffffffffffffffffff161415610ac5576040517f08c379a0000000000000000000000000000000000000000000000000000000008152600401610abc906118d5565b60405180910390fd5b600073ffffffffffffffffffffffffffffffffffffffff168273ffffffffffffffffffffffffffffffffffffffff161415610b35576040517f08c379a0000000000000000000000000000000000000000000000000000000008152600401610b2c906117f5565b60405180910390fd5b80600160008573ffffffffffffffffffffffffffffffffffffffff1673ffffffffffffffffffffffffffffffffffffffff16815260200190815260200160002060008473ffffffffffffffffffffffffffffffffffffffff1673ffffffffffffffffffffffffffffffffffffffff168152602001908152602001600020819055508173ffffffffffffffffffffffffffffffffffffffff168373ffffffffffffffffffffffffffffffffffffffff167f8c5be1e5ebec7d5bd14f71427d1e84f3dd0314c0f7b2291e5b200ac8c7c3b92583604051610c139190611935565b60405180910390a3505050565b6000610c2d848484611133565b6000600160008673ffffffffffffffffffffffffffffffffffffffff1673ffffffffffffffffffffffffffffffffffffffff1681526020019081526020016000206000610c78610a4d565b73ffffffffffffffffffffffffffffffffffffffff1673ffffffffffffffffffffffffffffffffffffffff16815260200190815260200160002054905082811015610cf8576040517f08c379a0000000000000000000000000000000000000000000000000000000008152600401610cef90611855565b60405180910390fd5b610d0c85610d04610a4d565b858403610a55565b60019150509392505050565b600073ffffffffffffffffffffffffffffffffffffffff168273ffffffffffffffffffffffffffffffffffffffff161415610d88576040517f08c379a0000000000000000000000000000000000000000000000000000000008152600401610d7f90611915565b60405180910390fd5b610d94600083836113b4565b8060026000828254610da69190611987565b92505081905550806000808473ffffffffffffffffffffffffffffffffffffffff1673ffffffffffffffffffffffffffffffffffffffff1681526020019081526020016000206000828254610dfb9190611987565b925050819055508173ffffffffffffffffffffffffffffffffffffffff16600073ffffffffffffffffffffffffffffffffffffffff167fddf252ad1be2c89b69c2b068fc378daa952ba7f163c4a11628f55a4df523b3ef83604051610e609190611935565b60405180910390a3610e74600083836113b9565b5050565b600073ffffffffffffffffffffffffffffffffffffffff168273ffffffffffffffffffffffffffffffffffffffff161415610ee8576040517f08c379a0000000000000000000000000000000000000000000000000000000008152600401610edf90611895565b60405180910390fd5b610ef4826000836113b4565b60008060008473ffffffffffffffffffffffffffffffffffffffff1673ffffffffffffffffffffffffffffffffffffffff16815260200190815260200160002054905081811015610f7a576040517f08c379a0000000000000000000000000000000000000000000000000000000008152600401610f71906117b5565b60405180910390fd5b8181036000808573ffffffffffffffffffffffffffffffffffffffff1673ffffffffffffffffffffffffffffffffffffffff168152602001908152602001600020819055508160026000828254610fd191906119dd565b92505081905550600073ffffffffffffffffffffffffffffffffffffffff168373ffffffffffffffffffffffffffffffffffffffff167fddf252ad1be2c89b69c2b068fc378daa952ba7f163c4a11628f55a4df523b3ef846040516110369190611935565b60405180910390a361104a836000846113b9565b505050565b6000600560009054906101000a900473ffffffffffffffffffffffffffffffffffffffff16905081600560006101000a81548173ffffffffffffffffffffffffffffffffffffffff021916908373ffffffffffffffffffffffffffffffffffffffff1602179055508173ffffffffffffffffffffffffffffffffffffffff168173ffffffffffffffffffffffffffffffffffffffff167f8be0079c531659141344cd1fd0a4f28419497f9722a3daafe3b4186f6b6457e060405160405180910390a35050565b6000611129611122610a4d565b8484611133565b6001905092915050565b600073ffffffffffffffffffffffffffffffffffffffff168373ffffffffffffffffffffffffffffffffffffffff1614156111a3576040517f08c379a000000000000000000000000000000000000000000000000000000000815260040161119a906118b5565b60405180910390fd5b600073ffffffffffffffffffffffffffffffffffffffff168273ffffffffffffffffffffffffffffffffffffffff161415611213576040517f08c379a000000000000000000000000000000000000000000000000000000000815260040161120a90611795565b60405180910390fd5b61121e8383836113b4565b60008060008573ffffffffffffffffffffffffffffffffffffffff1673ffffffffffffffffffffffffffffffffffffffff168152602001908152602001600020549050818110156112a4576040517f08c379a000000000000000000000000000000000000000000000000000000000815260040161129b90611815565b60405180910390fd5b8181036000808673ffffffffffffffffffffffffffffffffffffffff1673ffffffffffffffffffffffffffffffffffffffff16815260200190815260200160002081905550816000808573ffffffffffffffffffffffffffffffffffffffff1673ffffffffffffffffffffffffffffffffffffffff16815260200190815260200160002060008282546113379190611987565b925050819055508273ffffffffffffffffffffffffffffffffffffffff168473ffffffffffffffffffffffffffffffffffffffff167fddf252ad1be2c89b69c2b068fc378daa952ba7f163c4a11628f55a4df523b3ef8460405161139b9190611935565b60405180910390a36113ae8484846113b9565b50505050565b505050565b505050565b6000813590506113cd81611ef1565b92915050565b6000813590506113e281611f08565b92915050565b6000602082840312156113fa57600080fd5b6000611408848285016113be565b91505092915050565b6000806040838503121561142457600080fd5b6000611432858286016113be565b9250506020611443858286016113be565b9150509250929050565b60008060006060848603121561146257600080fd5b6000611470868287016113be565b9350506020611481868287016113be565b9250506040611492868287016113d3565b9150509250925092565b600080604083850312156114af57600080fd5b60006114bd858286016113be565b92505060206114ce858286016113d3565b9150509250929050565b6000602082840312156114ea57600080fd5b60006114f8848285016113d3565b91505092915050565b61150a81611a11565b82525050565b61151981611a23565b82525050565b600061152a8261196b565b6115348185611976565b9350611544818560208601611a66565b61154d81611b29565b840191505092915050565b6000611565602383611976565b915061157082611b3a565b604082019050919050565b6000611588602283611976565b915061159382611b89565b604082019050919050565b60006115ab602683611976565b91506115b682611bd8565b604082019050919050565b60006115ce602283611976565b91506115d982611c27565b604082019050919050565b60006115f1602683611976565b91506115fc82611c76565b604082019050919050565b6000611614603283611976565b915061161f82611cc5565b604082019050919050565b6000611637602883611976565b915061164282611d14565b604082019050919050565b600061165a602083611976565b915061166582611d63565b602082019050919050565b600061167d602183611976565b915061168882611d8c565b604082019050919050565b60006116a0602583611976565b91506116ab82611ddb565b604082019050919050565b60006116c3602483611976565b91506116ce82611e2a565b604082019050919050565b60006116e6602583611976565b91506116f182611e79565b604082019050919050565b6000611709601f83611976565b915061171482611ec8565b602082019050919050565b61172881611a4f565b82525050565b61173781611a59565b82525050565b60006020820190506117526000830184611501565b92915050565b600060208201905061176d6000830184611510565b92915050565b6000602082019050818103600083015261178d818461151f565b905092915050565b600060208201905081810360008301526117ae81611558565b9050919050565b600060208201905081810360008301526117ce8161157b565b9050919050565b600060208201905081810360008301526117ee8161159e565b9050919050565b6000602082019050818103600083015261180e816115c1565b9050919050565b6000602082019050818103600083015261182e816115e4565b9050919050565b6000602082019050818103600083015261184e81611607565b9050919050565b6000602082019050818103600083015261186e8161162a565b9050919050565b6000602082019050818103600083015261188e8161164d565b9050919050565b600060208201905081810360008301526118ae81611670565b9050919050565b600060208201905081810360008301526118ce81611693565b9050919050565b600060208201905081810360008301526118ee816116b6565b9050919050565b6000602082019050818103600083015261190e816116d9565b9050919050565b6000602082019050818103600083015261192e816116fc565b9050919050565b600060208201905061194a600083018461171f565b92915050565b6000602082019050611965600083018461172e565b92915050565b600081519050919050565b600082825260208201905092915050565b600061199282611a4f565b915061199d83611a4f565b9250827fffffffffffffffffffffffffffffffffffffffffffffffffffffffffffffffff038211156119d2576119d1611acb565b5b828201905092915050565b60006119e882611a4f565b91506119f383611a4f565b925082821015611a0657611a05611acb565b5b828203905092915050565b6000611a1c82611a2f565b9050919050565b60008115159050919050565b600073ffffffffffffffffffffffffffffffffffffffff82169050919050565b6000819050919050565b600060ff82169050919050565b60005b83811015611a84578082015181840152602081019050611a69565b83811115611a93576000848401525b50505050565b60006002820490506001821680611ab157607f821691505b60208210811415611ac557611ac4611afa565b5b50919050565b7f4e487b7100000000000000000000000000000000000000000000000000000000600052601160045260246000fd5b7f4e487b7100000000000000000000000000000000000000000000000000000000600052602260045260246000fd5b6000601f19601f8301169050919050565b7f45524332303a207472616e7366657220746f20746865207a65726f206164647260008201527f6573730000000000000000000000000000000000000000000000000000000000602082015250565b7f45524332303a206275726e20616d6f756e7420657863656564732062616c616e60008201527f6365000000000000000000000000000000000000000000000000000000000000602082015250565b7f4f776e61626c653a206e6577206f776e657220697320746865207a65726f206160008201527f6464726573730000000000000000000000000000000000000000000000000000602082015250565b7f45524332303a20617070726f766520746f20746865207a65726f20616464726560008201527f7373000000000000000000000000000000000000000000000000000000000000602082015250565b7f45524332303a207472616e7366657220616d6f756e742065786365656473206260008201527f616c616e63650000000000000000000000000000000000000000000000000000602082015250565b7f45524332303a207472616e7366657220746f20746865207a65726f206164647260008201527f657373206973206e6f7420616c6c6f7765640000000000000000000000000000602082015250565b7f45524332303a207472616e7366657220616d6f756e742065786365656473206160008201527f6c6c6f77616e6365000000000000000000000000000000000000000000000000602082015250565b7f4f776e61626c653a2063616c6c6572206973206e6f7420746865206f776e6572600082015250565b7f45524332303a206275726e2066726f6d20746865207a65726f2061646472657360008201527f7300000000000000000000000000000000000000000000000000000000000000602082015250565b7f45524332303a207472616e736665722066726f6d20746865207a65726f20616460008201527f6472657373000000000000000000000000000000000000000000000000000000602082015250565b7f45524332303a20617070726f76652066726f6d20746865207a65726f2061646460008201527f7265737300000000000000000000000000000000000000000000000000000000602082015250565b7f45524332303a2064656372656173656420616c6c6f77616e63652062656c6f7760008201527f207a65726f000000000000000000000000000000000000000000000000000000602082015250565b7f45524332303a206d696e7420746f20746865207a65726f206164647265737300600082015250565b611efa81611a11565b8114611f0557600080fd5b50565b611f1181611a4f565b8114611f1c57600080fd5b5056fea264697066735822122085ffe99d8741cb05acdcdacdf83b4ea94c8372404557e438f82a49a14689391664736f6c63430008040033",
  "linkReferences": {},
  "deployedLinkReferences": {}
}